:020000040800F2
:10000000001000200D0100085501000855010008EE
:1000100055010008550100085501000800000000C6
:100020000000000000000000000000005501000872
:1000300055010008000000005501000855010008A6
:100040005501000855010008550100085501000838
:100050005501000855010008550100085501000828
:100060000000000055010008550100085501000876
:100070005501000855010008550100080000000066
:100080005501000855010008000000005501000856
:1000900055010008550100085501000855010008E8
:1000A00055010008550100085501000855010008D8
:1000B00055010008000000000000000000000000E2
:0C00C00055010008000000005501000878
:1000CC0010B5054C237833B9044B13B10448AFF386
:1000DC0000800123237010BD1402002000000000DA
:1000EC00B00C000808B5034B1BB103490348AFF330
:1000FC00008008BD0000000018020020B00C0008B1
:10010C00002103E00B4B5B58435004310A480B4B66
:10011C0042189A42F6D30A4A02E0002342F8043B02
:10012C00084B9A42F9D300F0C6FA00F071FD00F0CA
:10013C00F3FA7047D00C00080000002000000020EB
:10014C000000002030020020FEE70000114B1A686E
:10015C0042F001021A601A689207FCD55A686FF3D4
:10016C0001025A605A6812F00C0FC2F38101F9D1E6
:10017C001A6822F0867222F480321A6041F61072EC
:10018C005960DA624FF480121A634FF41F029A60BE
:10019C00704700BF00100240030C03F1804303F5CD
:1001AC00043300F01F001A68012303FA00F030EA50
:1001BC0002030CBF012000207047030C03F18043A5
:1001CC0003F50433012200F01F0002FA00F0914203
:1001DC001A680CBF104322EA000018607047000038
:1001EC0004281FD8DFE800F003090E1319000E4B8A
:1001FC001A6861F300021A6070470B4B1A6861F3BE
:10020C001042F8E7084B1A6861F31862F3E7064BE3
:10021C001A6A61F300021A627047034B5A6A61F35F
:10022C0000025A62704700BF00100240024B5A682D
:10023C0060F307125A60704700100240024B5A6874
:10024C0060F30A225A60704700100240024B5A6851
:10025C0060F3CD225A6070470010024010B51A4B63
:10026C005A6820B960F3104218485A6009E042F409
:10027C0080325A6001285A6821D16FF351421448D8
:10028C005A606FF41874A0F56E122244114CA242FD
:10029C0018D9114A02441148824294BF022200220A
:1002AC00586861F3954058605868C1F3011161F3C7
:1002BC005E705860D96A62F31A61D96210BD42F45B
:1002CC000032D1E70022EBE70010024000093D00AC
:1002DC0000127A00DEC810006BCA88FF7AE50700AE
:1002EC00024B5A6860F301025A60704700100240DA
:1002FC00024B5868C0F38100704700BF00100240E9
:10030C00044B5A6D01280CBF42F030026FF30512FA
:10031C005A65704700100240014BD860704700BF0F
:10032C0000200240084BDA68D10709D4DA6852077A
:10033C0008D4DB6813F0100F14BF022003207047A1
:10034C0000207047012070470020024010B5044681
:10035C00FFF7E8FF30B90CB9042010BDFFF7E2FF3E
:10036C00013CF7E7002C08BF0420F6E7034B044AD6
:10037C005A6002F188325A60704700BF0020024078
:10038C0023016745024A136943F0800313617047E8
:10039C000020024010B5094C236943F0020323618D
:1003AC006061236943F0400323614FF08040FFF705
:1003BC00CDFF23696FF34103236110BD0020024080
:1003CC0010B5074C236943F00103236101604FF41E
:1003DC008010FFF7BBFF23696FF30003236110BD8F
:1003EC00002002402DE9F0410C880025032601274E
:1003FC000CB9BDE8F081E30735D51FFA85FE02681C
:10040C004FEA4E0C06FA0CF322EA030202608A79D8
:10041C00D0F8008002FA0CF242EA0802026042684C
:10042C0007FA0EF822EA080242600A79D0F8048032
:10043C0002FA0EF242EA08024260826822EA0302E1
:10044C008260CA79D0F808E002FA0CF242EA0E0295
:10045C008260C26822EA0303C3604B79C26803FA64
:10046C000CF31343C36064080135C1E74FF6FF7208
:10047C004FF08073C0E9002370472DE9F84342EA3E
:10048C0001039B0705460E46144626D14FEA9108F8
:10049C00FFF76CFFC4F3090313B92046FFF77AFF8B
:1004AC0005EB88082F46A4EB050947450BD1FFF750
:1004BC0069FF32462146284600F0CEFBB0FA80F0A8
:1004CC004009BDE8F883396809EB0700FFF778FFAE
:1004DC000320FFF721FF0437E7E70020F1E700F0E6
:1004EC00CBBB0000114B1B78012B03D0104B00220F
:1004FC001A8070470F4A136803F16043B3F5803FCD
:10050C00F4D8536803F17843A3F58053B3F5802FE7
:10051C00ECD872B6084B19686FF300011960D2E978
:10052C0000329D4683F3088810477047007C000812
:10053C000000002000100008000400404FF0904222
:10054C00116821F030011160D36823F0300343EAC5
:10055C000013D36070470120FFF7F0BF70B514484B
:10056C00ADF5806DFFF718FE01281ED1114CA37854
:10057C000E2B1AD0013BDBB2FD2B16D84FF4806248
:10058C002146684600F078FB0B4E0E238DF80230A6
:10059C006D46224628464FF4807104F58074FFF7AF
:1005AC006CFFB44205F58075F3D10DF5806D70BD0F
:1005BC001C002400007C0008008000080549064B44
:1005CC004A6A92B25A804B6A9B1A9BB29842FAD8EA
:1005DC00704700BF00040040000000204FF0904323
:1005EC0004229A611A6822F0300242F010021A605A
:1005FC005A6822F004025A603420FFF7DFBFF8B5C6
:10060C004FF0904604270546B7623420FFF7D6FF1B
:10061C000824EB074CBFB761B7623420013CFFF7ED
:10062C00CDFF14F0FF044FEA5505F2D14FF0904383
:10063C0004229A61F8BD10B50446FFF7CFFF20469F
:10064C00FFF7DDFFBDE81040FFF785BF08B5302090
:10065C00FFF7F1FF014B00221A8008BD00000020BB
:10066C0008B5C220FFF7E7FF024A13880133138055
:10067C0008BD00BF0000002008B5C120FFF7DBFF5C
:10068C00024A13880133138008BD00BF000000200C
:10069C0038B504460D46FFF7A1FF254414F8010BAD
:1006AC00FFF7ADFF3420FFF789FFAC42F6D1BDE870
:1006BC003840FFF750BF70470023F0B504464AF2AC
:1006CC0001071846994200DCF0BDE55C082285EA7A
:1006DC00000616F0010F4FEA500018BF784002F1E7
:1006EC00FF3218BF80B212F0FF024FEA5505EED16F
:1006FC000133E7E710B5074C0146201DFFF7DCFF7F
:10070C0021444A790B7943EA02231B1A5842584177
:10071C0010BD00BF000000202DE98048B74B85B00C
:10072C0040F2531200AF1A60FFF710FD01210020B8
:10073C00FFF756FD0120FFF72FFD01280446F9D1E4
:10074C001D210020FFF78AFD21460220FFF748FDFE
:10075C001920FFF721FD01280446F9D10020FFF7ED
:10076C0065FD0020FFF772FD0020FFF767FD2046B6
:10077C00FFF7C6FD0220FFF7B3FDFFF7B9FD022816
:10078C000446FAD10020FFF7BBFD9D480121FFF77D
:10079C0014FD9C4B9C4877229A624FF6FF72DA62EA
:1007AC001A6842F001021A601A686FF309221A6083
:1007BC001A686FF306121A605A6942F001025A6104
:1007CC000121FFF7FAFC01219048FFF7F6FC07F135
:1007DC000800FFF74BFE4FF080730420C7E90203BB
:1007EC0007F108014FF09040FFF7FCFD2046FFF7A2
:1007FC00A5FE4FF4FA70FFF7E1FE002425464FF0FA
:10080C009046336959075CBF0135ADB20A20FFF73A
:10081C00D5FEB5F5E17F88BF4FF47A640134B4F5A9
:10082C007A6FEEDBB5F5E17F06D97948FFF7B4FCBA
:10083C00012801D0FFF756FE0120FFF77FFE4FF491
:10084C00FA70FFF7BBFE04464FF0904633695A0727
:10085C0058BF01354FF00A0058BFADB2FFF7AEFEDE
:10086C00013CF3D1C5B12046FFF768FE4FF4FA7096
:10087C00FFF7A4FE05464FF0904633695B0758BF5F
:10088C0001344FF00A0058BFA4B2FFF797FE013DA8
:10089C00F3D10CB1FFF726FE0020FFF74FFEFFF758
:1008AC005DFE584E5B4C4FF0000B4FF48172594675
:1008BC00201D84F806B100F0EDF9FFF74CFE04F1B1
:1008CC000409D846002384F80731726A92B2628018
:1008DC004FF0904144F620600B695D0745D5726A74
:1008EC0094F8061192B262804FF090452B6958072C
:1008FC004BD41A20FFF762FE2B6913F004033BD193
:10090C004FF0904A34207B60FFF758FEDAF8105015
:10091C007B6894F80721C5F380059D40154301338E
:10092C00EDB2082B84F80751ECD1FFF747FEDAF84B
:10093C0010305B0720D5012384F8063194F8083178
:10094C00002B46D0B4F80A310233984529D008F16F
:10095C00010889F800501FFA88F80BF1010BBBF560
:10096C00817F09F10109ADD117E0736A9B1A9BB223
:10097C008342B1D96523238094F806316BB923885F
:10098C00642B8FD9FFF7AEFD8CE7736A9B1A9BB271
:10099C00B3F5827FAAD90029A8D094F80831002B8E
:1009AC003ED0B4F80A512846FFF7A4FE10B34FF41A
:1009BC0080720021184800F06DF918492A4601F59B
:1009CC00847000F059F9FFF741FE002384F80831D8
:1009DC00D5E7736A62889B1A9BB2FA2B20D840F237
:1009EC0001139B4508BF238889F8005004BF1433BA
:1009FC002380B2E7FFF734FEC1E700BF00200240BE
:100A0C0001001C000004004012001400110014002E
:100A1C001C002400000000200C0100200400002019
:100A2C00237D20797D2B0CD1237B0D2BA7D1637BD0
:100A3C00422BA4D171480921FFF72AFE002323760B
:100A4C009DE7237E7D2B05D1237C0D2B02D1637C6E
:100A5C00422BEFD094F82C307D2B07D194F8243016
:100A6C000D2B03D194F82530422BE3D070B9A27929
:100A7C0063791343E279134301D165232380C120A9
:100A8C00FFF7D9FD23880133238078E701281ED195
:100A9C000220FFF72FFE0028ACD0D4F80C22584BC4
:100AAC009A4202D8FFF7E8FD69E7564BB4F80A11F1
:100ABC009A4204D1022984BF0E2384F80E31524885
:100ACC00FFF7DBFC0028EDD0FFF7C0FD57E7FF2850
:100ADC0020D10420FFF70EFE00288BD000232380AA
:100AEC00E3885BBA9BB2202BC4F80C3203D1454B84
:100AFC00C4F80C32E8E7212B01D1444BF8E7222B48
:100B0C0002D1D4F81032F3E7B3F5806FCAD303F1F6
:100B1C000063EDE7FE2813D10420FFF7EBFD00285E
:100B2C003FF468AFA379012B14BFE3794FF48073C2
:100B3C00A4F80A31012384F80831FFF70CFD1EE7F5
:100B4C00FD2809D10220FFF7D5FD00283FF452AF54
:100B5C00C120FFF770FD12E702280AD1FFF7CAFD8A
:100B6C0000283FF447AFD4F80C22254B9A4299D970
:100B7C00AAE7032883D10220E846FFF7BBFD18B98A
:100B8C00FFF76EFDC546FAE6D4F80CA2BAF1000FD9
:100B9C0002D1FFF771FDF5E76579002D08BF4FF421
:100BAC00807505F10A0323F00703ADEB030D05F186
:100BBC0003094A460021684600F06CF82A46514663
:100BCC006846FFF78CFC29466846FFF775FD6B1CE1
:100BDC000DF80500000A0DF80300AB1C30220DF8CF
:100BEC00032049466846FFF753FDD4F80C322B44DA
:100BFC00C4F810320023C4F80C32C3E7E80F000825
:100C0C00FF0F0008007C00080C010020E07B0008AE
:100C1C0070B50D4D0D4C641BA4100026A64209D1D5
:100C2C000B4D0C4C00F03EF8641BA4100026A642A1
:100C3C0005D170BD55F8043B98470136EEE755F8E1
:100C4C00043B98470136F2E7C80C0008C80C0008B2
:100C5C00C80C0008CC0C000810B5013902449042B5
:100C6C0001D1002005E0037811F8014FA34201D017
:100C7C00181B10BD0130F2E70A44914200F1FF331A
:100C8C0000D1704710B511F8014B03F8014F914298
:100C9C00F9D110BD02440346934200D1704703F8CA
:100CAC00011BF9E7F8B500BFF8BC08BC9E467047BD
:0C0CBC00F8B500BFF8BC08BC9E467047AD
:040CC800F10000082F
:040CCC00CD0000084F
:100FE000DAE32559D963B84E343731021F060602B9
:040FF00030000000CD
:040000050800010DE1
:00000001FF
